{
  "contractName": "SquareVerifier",
  "abi": [
    {
      "anonymous": false,
      "inputs": [
        {
          "indexed": false,
          "internalType": "string",
          "name": "s",
          "type": "string"
        }
      ],
      "name": "Verified",
      "type": "event"
    },
    {
      "constant": false,
      "inputs": [
        {
          "internalType": "uint256[2]",
          "name": "a",
          "type": "uint256[2]"
        },
        {
          "internalType": "uint256[2][2]",
          "name": "b",
          "type": "uint256[2][2]"
        },
        {
          "internalType": "uint256[2]",
          "name": "c",
          "type": "uint256[2]"
        },
        {
          "internalType": "uint256[2]",
          "name": "input",
          "type": "uint256[2]"
        }
      ],
      "name": "verifyTx",
      "outputs": [
        {
          "internalType": "bool",
          "name": "r",
          "type": "bool"
        }
      ],
      "payable": false,
      "stateMutability": "nonpayable",
      "type": "function"
    }
  ],
  "bytecode": "0x608060405234801561001057600080fd5b506110fc806100206000396000f3fe608060405234801561001057600080fd5b506004361061002b5760003560e01c8063621e9ec014610030575b600080fd5b61018f600480360361014081101561004757600080fd5b8101908080604001906002806020026040519081016040528092919082600260200280828437600081840152601f19601f82011690508083019250505050505091929192908060800190600280602002604051908101604052809291906000905b828210156100fc578382604002016002806020026040519081016040528092919082600260200280828437600081840152601f19601f820116905080830192505050505050815260200190600101906100a8565b50505050919291929080604001906002806020026040519081016040528092919082600260200280828437600081840152601f19601f820116905080830192505050505050919291929080604001906002806020026040519081016040528092919082600260200280828437600081840152601f19601f82011690508083019250505050505091929192905050506101a9565b604051808215151515815260200191505060405180910390f35b60006101b3610f49565b6040518060400160405280876000600281106101cb57fe5b60200201518152602001876001600281106101e257fe5b60200201518152508160000181905250604051806040016040528060405180604001604052808860006002811061021557fe5b602002015160006002811061022657fe5b602002015181526020018860006002811061023d57fe5b602002015160016002811061024e57fe5b6020020151815250815260200160405180604001604052808860016002811061027357fe5b602002015160006002811061028457fe5b602002015181526020018860016002811061029b57fe5b60200201516001600281106102ac57fe5b602002015181525081525081602001819052506040518060400160405280856000600281106102d757fe5b60200201518152602001856001600281106102ee57fe5b60200201518152508160400181905250606060026040519080825280602002602001820160405280156103305781602001602082028038833980820191505090505b50905060008090505b60028110156103785784816002811061034e57fe5b602002015182828151811061035f57fe5b6020026020010181815250508080600101915050610339565b50600061038582846103f0565b14156103e1577f3f3cfdb26fb5f9f1786ab4f1a1f9cd4c0b5e726cbdfc26e495261731aad44e396040518080602001828103825260228152602001806110a66022913960400191505060405180910390a16001925050506103e8565b6000925050505b949350505050565b6000807f30644e72e131a029b85045b68181585d2833e84879b9709143e1f593f0000001905061041e610f7c565b610426610562565b905080608001515160018651011461043d57600080fd5b610445610fc3565b6040518060400160405280600081526020016000815250905060008090505b86518110156104db578387828151811061047a57fe5b60200260200101511061048c57600080fd5b6104cc826104c7856080015160018501815181106104a657fe5b60200260200101518a85815181106104ba57fe5b60200260200101516109af565b610a43565b91508080600101915050610464565b506104fe8183608001516000815181106104f157fe5b6020026020010151610a43565b90506105448560000151866020015161051684610af6565b85604001516105288a60400151610af6565b876060015161053a8960000151610af6565b8960200151610b90565b610554576001935050505061055c565b600093505050505b92915050565b61056a610f7c565b60405180604001604052807f1936c240636390dc823e3a728e94b208eb53c6756d81da57ec3425e05d43ac1081526020017f2d70ff78e8216bf29d58923a686d9738278b8ce2fd822e197c85b09286d155668152508160000181905250604051806040016040528060405180604001604052807f2b4daf047abe2e7f0b311118c1b963b63695dc0d769cea78849604434de055bf81526020017f29c13ecb6f33dbc4b3b8a02e2e255511ce4c26a8a2f299efcc94caf2de4fce00815250815260200160405180604001604052807f1da9020008df7f549751f8a251af3b2dc4a2ad3e0870de54acaedd9fc1b47e1781526020017f25ea0d7e2b29de431b86a943db30dbf4d98f68df9ca8a9628d14d1591e817d908152508152508160200181905250604051806040016040528060405180604001604052807f011016e22ae045444f50fb80f246ec486c7e02af09132cd38c4fcf484983e4f281526020017ee83c788c2878d1d5eba3ed49b0d81e4c0487dedc3e4d1c2baab5833785b62f815250815260200160405180604001604052807f05eb89e741ed5b5d611cebf92d1ed02cd6f3311089f0d400df7d9ced5a48fd4181526020017f132a90a3b0d369ccd66e2a5ba04a935e44d8ad5dca93a76bba592a578130a9118152508152508160400181905250604051806040016040528060405180604001604052807f065f6a3323a2abffd621fc263f348eb914904b68d5897729ae34a6b9d33f085281526020017f0c3b60f59d3bd50328a04c0ff6d979199685d0526f89f6ac29d6174ce24707a2815250815260200160405180604001604052807f26e7ebce2b44efef6b6315938e33f0a8ecc82dbad635c9efa681ed85bbb5998281526020017f12e0f3721230a0f38f6c9913048d5230fd2615ef3ff7f6ee4b20dfe0bdea1a868152508152508160600181905250600360405190808252806020026020018201604052801561085057816020015b61083d610fdd565b8152602001906001900390816108355790505b50816080018190525060405180604001604052807f1ef8d5d70234aa3e3d8fc4e3f1ca01c703182580b581106798f05b35fd5082c081526020017f2e468046d4ae35138e2032224925d5389712e5ca5e68f4d9c1e1858e7d65602d81525081608001516000815181106108bf57fe5b602002602001018190525060405180604001604052807f0cefae0e3fa6aa25a4485ab7b21d32794d3431a4e4a5ca82ea427b831534c2c981526020017f23e3d2035b70884e547638b111870f5957f58ad8068f7a21470164ad361e1e88815250816080015160018151811061093057fe5b602002602001018190525060405180604001604052807f030ffe78ec3de150e8688db619bde78e21e894754e6be5ed83742677628b24bc81526020017f053392f88cfa9092dfbc0bd199d8159e56207779473c24fc601eff91bcd345ca81525081608001516002815181106109a157fe5b602002602001018190525090565b6109b7610fc3565b6109bf610ff7565b8360000151816000600381106109d157fe5b6020020181815250508360200151816001600381106109ec57fe5b6020020181815250508281600260038110610a0357fe5b6020020181815250506000606083608084600060076107d05a03f190508060008114610a2e57610a30565bfe5b5080610a3b57600080fd5b505092915050565b610a4b610fc3565b610a53611019565b836000015181600060048110610a6557fe5b602002018181525050836020015181600160048110610a8057fe5b602002018181525050826000015181600260048110610a9b57fe5b602002018181525050826020015181600360048110610ab657fe5b602002018181525050600060608360c084600060066107d05a03f190508060008114610ae157610ae3565bfe5b5080610aee57600080fd5b505092915050565b610afe610fc3565b60007f30644e72e131a029b85045b68181585d97816a916871ca8d3c208c16d87cfd47905060008360000151148015610b3b575060008360200151145b15610b5f576040518060400160405280600081526020016000815250915050610b8b565b60405180604001604052808460000151815260200182856020015181610b8157fe5b0683038152509150505b919050565b600060606004604051908082528060200260200182016040528015610bcf57816020015b610bbc610fdd565b815260200190600190039081610bb45790505b50905060606004604051908082528060200260200182016040528015610c0f57816020015b610bfc61103b565b815260200190600190039081610bf45790505b5090508a82600081518110610c2057fe5b60200260200101819052508882600181518110610c3957fe5b60200260200101819052508682600281518110610c5257fe5b60200260200101819052508482600381518110610c6b57fe5b60200260200101819052508981600081518110610c8457fe5b60200260200101819052508781600181518110610c9d57fe5b60200260200101819052508581600281518110610cb657fe5b60200260200101819052508381600381518110610ccf57fe5b6020026020010181905250610ce48282610cf4565b9250505098975050505050505050565b60008151835114610d0457600080fd5b6000835190506000600682029050606081604051908082528060200260200182016040528015610d435781602001602082028038833980820191505090505b50905060008090505b83811015610ee957868181518110610d6057fe5b602002602001015160000151826000600684020181518110610d7e57fe5b602002602001018181525050868181518110610d9657fe5b602002602001015160200151826001600684020181518110610db457fe5b602002602001018181525050858181518110610dcc57fe5b602002602001015160000151600060028110610de457fe5b6020020151826002600684020181518110610dfb57fe5b602002602001018181525050858181518110610e1357fe5b602002602001015160000151600160028110610e2b57fe5b6020020151826003600684020181518110610e4257fe5b602002602001018181525050858181518110610e5a57fe5b602002602001015160200151600060028110610e7257fe5b6020020151826004600684020181518110610e8957fe5b602002602001018181525050858181518110610ea157fe5b602002602001015160200151600160028110610eb957fe5b6020020151826005600684020181518110610ed057fe5b6020026020010181815250508080600101915050610d4c565b50610ef2611061565b60006020826020860260208601600060086107d05a03f190508060008114610f1957610f1b565bfe5b5080610f2657600080fd5b600082600060018110610f3557fe5b602002015114159550505050505092915050565b6040518060600160405280610f5c610fdd565b8152602001610f6961103b565b8152602001610f76610fdd565b81525090565b6040518060a00160405280610f8f610fdd565b8152602001610f9c61103b565b8152602001610fa961103b565b8152602001610fb661103b565b8152602001606081525090565b604051806040016040528060008152602001600081525090565b604051806040016040528060008152602001600081525090565b6040518060600160405280600390602082028038833980820191505090505090565b6040518060800160405280600490602082028038833980820191505090505090565b604051806040016040528061104e611083565b815260200161105b611083565b81525090565b6040518060200160405280600190602082028038833980820191505090505090565b604051806040016040528060029060208202803883398082019150509050509056fe5472616e73616374696f6e207375636365737366756c6c792076657269666965642ea265627a7a7231582021905593c110fba96d656ded94e64cd1c0049ed085da01c9c497c77fb0053d2764736f6c63430005100032",
  "source": "pragma solidity >=0.4.21 <0.6.0;\n\n// Define a contract call to the zokrates generated solidity contract <Verifier> or <renamedVerifier>\nimport \"./verifier.sol\";\n\ncontract SquareVerifier is Verifier{\n}\n\n// Define another contract named SolnSquareVerifier that inherits from your ERC721Mintable class\nimport \"./ERC721Mintable.sol\";\n\ncontract SolnSquareVerifier is RealEstateERC721Token {\n\n    // Define a solutions struct that can hold an index & an address\n    struct Solutions {\n        uint256 index;\n        address Address;\n    }\n\n    // Define an array of the above struct\n    Solutions[] solutionsArray;\n\n    // Define a mapping to store unique solutions submitted\n    mapping(bytes32 => Solutions) private uniqueSolutions;\n\n    // Create an event to emit when a solution is added\n    event solutionAdded(uint256 index, address Address);\n\n    function getVerifierKey(uint[2] memory a, uint[2][2] memory b, uint[2] memory c, uint[2] memory input) pure public returns(bytes32) {\n        return keccak256(abi.encodePacked(a, b, c, input));\n    }\n\n    // Create a function to add the solutions to the array and emit the event\n    function addSolution(address Address, uint256 index, bytes32 solutionKey) public {\n        uniqueSolutions[solutionKey] = Solutions({\n            index: index,\n            Address: Address\n        });\n        emit solutionAdded(index, Address);\n    }\n\n    Verifier public VerifierContract;\n    constructor(address VerifierContractAddress) public {\n        VerifierContract = Verifier(VerifierContractAddress);\n    }\n\n    // Create a function to mint new NFT only after the solution has been verified\n    //  - make sure the solution is unique (has not been used before)\n    //  - make sure you handle metadata as well as tokenSuplly\n    function mintNewNFT(address Address, uint256 index, uint[2] memory a, uint[2][2] memory b, uint[2] memory c,\n        uint[2] memory input) public returns (bool) {\n            require(VerifierContract.verifyTx(a, b, c, input), \"Not the valid solution\");\n            bytes32 solutionKey = keccak256(abi.encodePacked(a, b, c, input));\n            require(uniqueSolutions[solutionKey].Address == address(0), \"Solution exists\");\n            addSolution(Address, index, solutionKey);\n            super.mint(Address, index);\n        }\n}\n",
  "sourcePath": "/Users/Laurette/Desktop/projectFolder/Capstone/eth-contracts/contracts/SolnSquareVerifier.sol",
  "compiler": {
    "name": "solc",
    "version": "0.5.16+commit.9c3226ce.Emscripten.clang"
  },
  "schemaVersion": "3.1.0",
  "updatedAt": "2020-04-23T17:26:49.713Z",
  "devdoc": {
    "methods": {}
  },
  "userdoc": {
    "methods": {}
  }
}